:1000000015C100002EC100002CC100002AC1000053
:1000100028C1000026C1000024C1000022C1000048
:1000200020C100001EC1000034C20000B1C20000A7
:1000300018C1000016C1000014C1000012C1000068
:1000400010C100000EC100000CC100000AC1000078
:1000500008C1000006C1000004C100004EC100003C
:1000600000C10000FEC00000FCC00000FAC000009B
:10007000F8C00000F6C00000F4C00000F2C00000AC
:10008000F0C00000EEC00000ECC00000EAC00000BC
:10009000E8C00000E6C00000E4C00000E2C00000CC
:1000A000E0C00000DEC00000DCC000000001000075
:1000B000FF001200020000110149002200005A0155
:1000C0001C0021000023010900220100760121000B
:1000D0002101004301090003000097010401030905
:1000E000049B013402030904D1012603030904F926
:1000F000013001C13601C02601C13601C0360012EF
:1001000001000200000040C0168604020100010048
:100110000109024900020100C03209040000020383
:10012000000002092111010001221C0007058303C0
:100130004000010705040340000109040100020317
:10014000000003092111010001222100070581039C
:100150004000010705020320000206ABFF0A00026F
:10016000A1017508150026FF00954009018102953F
:100170004009029102C006C9FF0904A15C75081577
:100180000026FF00954009758102952009769102AD
:1001900095040976B102C0040309043403540065D0
:1001A0000065006E00730079006400750069006EE0
:1001B000006F0020005200610077004800490044B1
:1001C00000200044006500760069006300650000BF
:1001D0000026035400650065006E0073007900641A
:1001E00000750069006E006F00200052006100770A
:1001F000004800490044000000300345006D0075D0
:10020000006C006100740065006400200041007211
:10021000006400750069006E006F002000530065E7
:10022000007200690061006C0000000011241FBE14
:10023000CFEFDAE0DEBFCDBF11E0A0E0B1E0E2EE4B
:10024000F8E002C005900D92A030B107D9F711E097
:10025000A0E0B1E001C01D92A930B107E1F73BD3A6
:100260003EC3CECE569A08955E9A68EE73E080E063
:1002700090E083D05E9868EE73E080E090E07DC00F
:100280001DBA109268001CBC10BE1FBA10927A00F2
:1002900010926E0010926F00109271001092720016
:1002A0001092C900ECEBF0E0108214B817B81AB83D
:1002B0001DB810BA108215B818B81BB81EB811BAFC
:1002C0000895F89480E197E20197F1F781E0809337
:1002D000E00080E28093D80080E395E70197F1F792
:1002E000CFDF0C94003FFFCFF894CADF80E395E79F
:1002F0000197F1F70C940000FFCF8F938FB78F9386
:10030000809108018A5F8D37D0F480930801809135
:1003100004018E5F80930401D8F0809105018F4F16
:1003200080930501A8F0809106018F4F809306010C
:1003300078F0809107018F4F8093070109C08D5796
:1003400080930801809104018D5F8093040128F758
:1003500080910001885F8093000158F08091010135
:100360008F4F8093010128F0809102018F4F80937D
:1003700002018F918FBF8F9118959B01AC0114D012
:10038000FB010CC011D06E1B7F0B685E7340D0F375
:100390002150304040405040E851FC4F211531057C
:1003A0004105510579F708950FB6F89466B515B271
:1003B0007091000180910101909102010FBE10FE29
:1003C00005C06F3F19F0785F8F4F9F4F11240024B5
:1003D000660F001C660F001C660F001C7029089534
:1003E000F894E1E6F0E020E8208391E0908383E058
:1003F00084BD85BDEEE6F0E08081816080839093CE
:10040000800082E08093810090939000809391001F
:100410008093C00084E08093C1009093C2009093C9
:10042000C3001092C40085E880937A0020937B007B
:1004300010927E0010927D0002D0789408958091F1
:10044000D80087FF02C085FF23C081E08093D700DA
:1004500080EA8093D80082E189BD09B400FEFDCF17
:1004600080E98093D8001092E00010920901109268
:100470000A0110920B0110920D0110920C011092C2
:100480000F0110920E011092E1008CE08093E200C7
:1004900008951F920F920FB60F9211242F938F93EE
:1004A0009F938091E1001092E100282F83FF0FC0FD
:1004B0001092E90081E08093EB001092EC0082E35F
:1004C0008093ED0088E08093F0001092090122FFF4
:1004D00036C080910901882391F180910B01882316
:1004E00091F0815080930B01882369F481E080931F
:1004F000E90002C01092F1008091E80085FDFACF7A
:100500008AE38093E80080910C0190910D01982F6F
:10051000882339F09150892F90E090930D018093BA
:100520000C0180910E0190910F01982F882339F0D2
:100530009150892F90E090930F0180930E0120FF3E
:100540000CC080E18093E2001092090181E0809369
:100550000A0180EA8093D80019BC80910A0188239F
:1005600079F024FF0DC082E189BD09B400FEFDCF02
:1005700080E98093D8008DE08093E20010920A0118
:100580009F918F912F910F900FBE0F901F901895F4
:100590001F920F920FB60F9211242F933F934F93F8
:1005A0005F936F937F938F939F93AF93BF93EF93DB
:1005B000FF931092E9008091E80083FF78C13091A9
:1005C000F1009091F1006091F1007091F100409183
:1005D000F1005091F100A091F100B091F10082EF93
:1005E0008093E800963009F044C0ECEAF0E020E0A7
:1005F000859195918617970711F0359617C08591CB
:1006000095918417950711F0339610C02591359177
:100610004491CD01AF3FB10519F010F08FEF90E09C
:10062000841708F4482FF9015EEF04C02F5F2A30C9
:10063000F9F63DC18091E800282F30E0C9018570AE
:100640009070892BB9F322FD35C1242F413408F075
:1006500020E4922F04C085918093F100915099235A
:10066000D1F7421B5093E800442321F7203411F3C3
:1006700021C1953061F48EEF8093E8008091E8000D
:1006800080FFFCCF862F80688093E30013C19930F0
:10069000F9F4332309F06CC06093090110920B0147
:1006A0008EEF8093E800E2EFF0E091E09093E900B4
:1006B00085918093EB00882331F085918093EC0045
:1006C00085918093ED009F5F953081F78EE14BC05F
:1006D000983061F4303809F04BC08091E80080FF19
:1006E000FCCF809109018093F1007BC09923D1F464
:1006F0008091E80080FFFCCF323811F080E00DC01F
:100700004093E9008091EB0090E025E09695879575
:100710002A95E1F781701092E9008093F100109220
:10072000F1005FC0913011F0933011F5323001F5D6
:1007300061157105E9F4242F2F77822F81508530C0
:10074000B8F48EEF8093E8002093E900933009F429
:10075000AEC089E18093EB0081E090E002C0880F99
:10076000991F2A95E2F78093EA001092EA00A2C04E
:1007700041155105D1F5313A19F5913009F08BC089
:1007800040E45EEF8091E800282F30E0C9018570D9
:100790009070892BB9F322FD8DC0942F413408F05D
:1007A00090E4892F03C01092F10081508823D9F77B
:1007B000491B5093E800442329F7903419F37AC079
:1007C000313209F068C0993009F065C08091E800C5
:1007D00082FFFCCF8BEF8093E8008091E80080FFE0
:1007E000FCCF8EEF8093E80065C04130510509F0E1
:1007F00052C0913019F5313A09F059C04A2F5EEFD5
:100800008091E800282F30E0C90185709070892B15
:10081000B9F322FD4FC0942F413408F090E4892FA2
:1008200003C01092F10081508823D9F7491B5093DF
:10083000E800442329F7903419F33CC0993059F566
:100840003132A9F56050734091F5149781F580918C
:10085000E80082FFFCCF9091F1002091F1003091EF
:10086000F1004091F1008BEF8093E8008EEF8093D0
:10087000E800993A39F42534D1F4323CC1F44B36CE
:10088000B1F41FDD9B3899F4253C89F43D3179F4AE
:10089000403769F40BC0993C51F4303441F48EEF89
:1008A0008093E8008091E80080FFFCCF1DDD81E2AD
:1008B0008093EB00FF91EF91BF91AF919F918F914A
:1008C0007F916F915F914F913F912F910F900FBE4C
:1008D0000F901F90189584DDC5DCC6DCFECFF89420
:0208E000FFCF48
:00000001FF
