:100000000000022099010000811500004515000044
:100010004515000045150000451500004515000078
:10002000451500004515000045150000811500002C
:1000300081150000451500008115000035150000F0
:100040008115000081150000811500008115000058
:100050008115000081150000811500008115000048
:100060008115000081150000811500008115000038
:100070008115000081150000811500008115000028
:100080008115000081150000811500008115000018
:100090008115000081150000811500008115000008
:1000A00081150000811500008115000081150000F8
:1000B000811500008115000081150000491C000019
:1000C00081150000ED230000811500007529000056
:1000D00081150000A12F000081150000811500008E
:1000E00081150000811500008115000081150000B8
:1000F00081150000811500008115000081150000A8
:100100008115000081150000811500008115000097
:1001100081150000C5080000811500008115000050
:100120008115000081150000811500008115000077
:100130008115000081150000811500008115000067
:100140008115000081150000F134000081150000C8
:10015000413A000081150000811500008115000062
:100160008115000081150000811500008115000037
:100170008115000081150000811500008115000027
:100180008115000081150000811500008115000017
:100190008115000081150000584B4CF2205210B51B
:1001A0001A804DF628121A8000BF00BF01F0ECF94A
:1001B000534B4FF030621A60524A9A60524ADA60EA
:1001C000524B4FF470021A60514B1A6812F480724D
:1001D00004D150490A604FF4A8521A604E4B1A7865
:1001E000110703D51A7842F008021A704B4B4C4C99
:1001F0004C482A221A704C4A00239918A14203D273
:10020000195899500433F8E7484B494900228B426A
:1002100002D243F8042BFAE74648474900235A58CC
:100220001A500433B3F5CC7FF9D1444B444A8021B2
:1002300003F8011B9342FBD1424B3E4A1A60424BEA
:100240008A221A70A3F5805324225A70A0221A70B1
:100250009A799207FCD59A79D406FCD43B4A9379D3
:1002600003F00C03082B394BF9D103221A714022F9
:100270005A719A799006FCD5344A9179334B4906E4
:10028000FBD5334A334911600221516020221A7094
:100290009A7902F00C020C2AFAD12F4B2F4A1A60DD
:1002A0002F4B4BF67F321A6000225A60072243F828
:1002B000042C2C4AC3F80C2D62B600F0A5F9154B9E
:1002C0001B68DA0705D5284800F0E2F8274B284AD2
:1002D0001A60284B1B785B0609D5244C244A2368F6
:1002E000934204D1204800F0D3F80023236004F0A7
:1002F00079F801F04FF901F05BF8FEE70E200540B8
:1003000030800440823F04000100002B88ED00E0B3
:1003100010D0034014D0034002D0074000E0074053
:10032000980CFF1FB44A00006007FF1F980CFF1FC6
:100330002811FF1F0002FF1F0000000000E400E082
:1003400056E400E008ED00E00050064000400640A2
:10035000448004400000131104800440C0100500D4
:1003600014E000E0000020201D9521581CE003400F
:10037000A5C3945A00F00740FFFFFFFFFFFFFFFFF8
:10038000FFFFFFFFFFFFFFFFFFFFFFFFFFFFFFFF7D
:10039000FFFFFFFFFFFFFFFFFFFFFFFFFFFFFFFF6D
:1003A000FFFFFFFFFFFFFFFFFFFFFFFFFFFFFFFF5D
:1003B000FFFFFFFFFFFFFFFFFFFFFFFFFFFFFFFF4D
:1003C000FFFFFFFFFFFFFFFFFFFFFFFFFFFFFFFF3D
:1003D000FFFFFFFFFFFFFFFFFFFFFFFFFFFFFFFF2D
:1003E000FFFFFFFFFFFFFFFFFFFFFFFFFFFFFFFF1D
:1003F000FFFFFFFFFFFFFFFFFFFFFFFFFFFFFFFF0D
:10040000FFFFFFFFFFFFFFFFFFFFFFFFDEF9FFFF23
:1004100010B5054C237833B9044B13B10448AFF33E
:1004200000800123237010BD980CFF1F0000000006
:10043000B44A000008B5064B1BB106480649AFF3A5
:1004400000800648036813B1054B03B1984708BD07
:1004500000000000B44A00009C0CFF1F980CFF1F16
:100460000000000008B50D20012100F045F808BD8E
:1004700008B50D20012100F01BF8642000F0AEF853
:100480000D20002100F014F8642000F0A7F808BD4A
:10049000044B00221A6004490A60044A10601022CA
:1004A0001A60704714D0034004D0034000D00340CA
:1004B0003F281ED80F4B53F8303093F8802212F0AB
:1004C000FF0F08D019B1012283F880207047012264
:1004D00083F800217047074B03EBC000436821B14C
:1004E0001A6842F003021A6070471A6822F002028A
:1004F0001A6070478C4500003F284AD8254B03EB13
:10050000C0035B68012911D004291DD0214A52F88B
:100510003020002082F8800200292FD0022931D01B
:1005200003291FD040F203121A607047194A52F88B
:100530003020012182F880124FF4A2721A601A68EA
:1005400022F020021A607047124A52F8302001212E
:1005500082F880124FF4A2721A601A6842F02002E8
:100560001A6070474FF480721A601A6842F00202F3
:100570001A601A6822F001021A6070474FF4807204
:100580001A6070474FF480721A601A6842F00302D2
:100590001A6070478C45000072B60C4B1B680C4A01
:1005A00012680C49096862B611F0806F02D0322BD4
:1005B00088BF0132C3F53B437F330749A1FB0303E7
:1005C0005B094FF47A7000FB0230704718E000E0DE
:1005D000B40CFF1F04ED00E0ABAAAAAA38B505468B
:1005E000FFF7DAFF044625B938BD013D0AD004F50E
:1005F0007A74FFF7D1FF001BB0F57A7FF5D200F0D7
:10060000DFFEF6E738BD00BF70B5344B4FF0006237
:100610001A604FF080521A604FF000521A604FF08B
:1006200080421A604FF000421A6000202C4B186084
:100630004BF6FF710433196028232A4A13600832ED
:1006400013600832136008321360083213600832F6
:1006500013600832136008321360234D2B60234C63
:10066000236002F5002202F6D8721360083213608C
:1006700008321360083213600832136008321360C6
:1006800009221B4E326006F580560436306004366F
:1006900031600436336008363360143E326006F54C
:1006A000FE26043630600436316004363360083686
:1006B0003360143E326006F58056043630600D48D3
:1006C00001602B6023600C4B1A6000F0A9FE4FF410
:1006D000C870FFF783FF00F065FC70BD04E100E027
:1006E000048003400C8003400C900B4014900B409E
:1006F0000080034008900B4000900B4030B40E4B3C
:100700001B7843F002020D4C04EBC20460600C48FD
:10071000007800280CBF8824C82444EA0141074D12
:1007200045F8321080F00100054A107083F0010393
:10073000014A137030BC7047200DFF1F0000FF1FDF
:10074000990DFF1F10B4431E032B11D872B60A4A2D
:1007500052F8230050B14268074941F82320074A64
:1007600032F813400188611A22F8131062B600E0D3
:1007700000205DF8044B7047100DFF1F2011FF1F74
:10078000013803280DD872B6074B53F820302BB12F
:10079000002001305B68002BFBD100E0002062B636
:1007A00070470020704700BF640DFF1F38B572B658
:1007B00001231B491B4C5A1812F8012C12F0080F88
:1007C00024D09A0054F832506DB9164B03EBC20195
:1007D00008304860144943F83210144B1A78013A33
:1007E0001A7062B638BD42F0010254F832506DB949
:1007F0000C4B03EBC201083048600D4943F832103E
:100800000A4B1A78013A1A7062B638BD0133052BCB
:10081000D1D162B60022054B1A7000F02DFC38BD14
:100820008C4700000000FF1F880040008E0DFF1F56
:10083000C800400010B4431E032B37D8400140F0DD
:1008400010001C4A104472B61B4AD25C032A09D815
:10085000DFE802F019021B050830022216E008301A
:10086000042213E0154A52F823201AB9134A42F819
:10087000231003E0124A52F823205160104A42F834
:10088000231062B612E0032200E005220A4CE25473
:1008900001F10803436000F00803002B0CBF88231C
:1008A000C8230A8843EA0243036062B65DF8044B3A
:1008B000704700BF0000FF1FCC0CFF1F640DFF1F1F
:1008C000740DFF1F2DE9F84FA84CDFF8F092DFF808
:1008D000F0A2DFF8F0B22578EDB215F0040F1DD0CC
:1008E000A34B1B7813F0FF0F16D0A24B1B7803F01D
:1008F000FF022BB1531EDBB29E4A137003B900BE38
:100900009D4B1B7803F0FF0233B1531EDBB29A4AB2
:1009100013700BB900F02EFD0423237015F0080F9F
:1009200000F0D48299F80030DBB21D0940F0158246
:10093000924D9E0805EBC6035A6855F83630C3F34E
:100940008303013B0C2B00F20482DFE813F0BB01B0
:10095000BB01020202020202020202020202DC01E6
:100960000202020202020D00854913680B60526800
:100970004A60844A45F83620002283490A607F494C
:100980000A618A610121814A11709BB240F2816241
:10099000934218D8B3F5D06F29D2B3F5817F00F018
:1009A000178106D8802B00F0C380822B00F0C68010
:1009B00056E140F20232934200F01F81B3F5A06F7E
:1009C00000F052814CE1B3F5106F16D004D8B3F5A6
:1009D000086F00F0A78043E140F62112934200F037
:1009E0006D8140F62122934200F03E8138E1684B50
:1009F0005D68002D40F016812EE1614B9A785C4BCA
:100A00001A705E4D05F180062B6A13F0800F03D03B
:100A1000686A083800F030FB0835B542F4D1DFF8D9
:100A2000A881002637465B4AB05828B1456800F0D7
:100A300023FB0DB12846F9E7002356497350564A67
:100A4000B350564BF05828B1456800F015FB0DB176
:100A50002846F9E7002351497350514AB35028F80A
:100A6000023F504BFB5C023B032B0AD8DFE803F04C
:100A70000206020600224B4BDA5502E00122494BE6
:100A8000DA5501370436102ECDD10022464B1A70AC
:100A90000125464FDFF83481384E05EB080313F883
:100AA000013C07F8043B13F0080F2DD000F0C4FA06
:100AB00048B1A90006EB451200F1080353603C4A17
:100AC00046F8312007E0AB00002246F83320364BD1
:100AD0001A7801321A7000F0AFFA58B1AB0043F047
:100AE000010306EBC30100F108024A60254A46F8FB
:100AF000332009E0AB0043F00103002246F8332025
:100B0000294B1A7801321A70AA0042F00201002320
:100B100046F8313042F0030246F8323001355F4585
:100B2000BBD114E2124B1B78224D2B700127A0E0A1
:100B3000204D00232B706B7002279AE0104B9B888E
:100B4000042B03D90F221C4B1A70B7E0194A00215D
:100B500011705170184A12F8233013F0020F00F090
:100B60008680144D01232B70022782E080200740ED
:100B7000980DFF1F210DFF1FA80DFF1F0000FF1F75
:100B8000840DFF1FC8004000B80CFF1F990DFF1F08
:100B900090470000100DFF1FBC0CFF1F640DFF1FCE
:100BA000740DFF1FCC0CFF1F8E0DFF1FC4200740CC
:100BB00088004000900DFF1FC02007409020074094
:100BC00094200740D42007401E11FF1F8C470000CF
:100BD000964B9B8803F07F03042B02DC934A5288D8
:100BE0001AB10F22924B1A7068E0914A12F8231042
:100BF00021F0020102F82310A9E18C4B9B8803F03D
:100C00007F03042B02DC894A52881AB10F22884BD9
:100C10001A7053E0864A12F8231041F0020102F8DC
:100C2000231094E1814B5E889F88824BA3F10C02D4
:100C3000114633F80C0CB04209D133F80A0CB84213
:100C400005D1360A032E0CBF2F78178911E00D69E4
:100C50000C330C32002DEBD10F22754B1A702DE0A6
:100C60000F22734B1A7029E000273D4601E002274E
:100C7000714D6E4BDB889F4228BF1F46402F34BF0B
:100C80003E46402628463146FFF738FD3544BF1B17
:100C900003D13F2E00F2608110E0402F34BF3E466A
:100CA000402628463146FFF729FD3544BF1B01D1B8
:100CB0003F2E03D9614B1D60614B1F8001238AF8D1
:100CC000003046E0594B19685E4B994217D1574B9B
:100CD00059685D4B994212D11378A92B0FD15378E3
:100CE000452B0CD19378C22B09D1D3786B2B06D12D
:100CF0000522564B1A7000200146FFF7FFFC544BAB
:100D000045F8363025E04D4B1E68BEB14C4FB7F864
:100D10000080B8F1400F34BF454640253046294693
:100D2000FFF7ECFCC5EB08039BB23B800BB9402DF1
:100D300001D1354400E00025404B1D603B4B1B8832
:100D4000B3F5A06F05D1394B00225A709B78414909
:100D50000B7001238AF80030B5E03F4E9F0806EB88
:100D6000C708D8F80420A2F10800013DEDB213F045
:100D7000080F47D000F080F9384B53F825304BB3BB
:100D80005A68364941F8252003F10802C8F80420C2
:100D9000334A525D032A12D8DFE802F002060A0E37
:100DA00003212F4A51550AE002212D4A515506E0F0
:100DB00005212B4A515502E00421294A515518F0CA
:100DC000080F0CBF8822C8221B8842EA034346F85A
:100DD000373078E0224B5B5D032B0BD8DFE803F064
:100DE0007373020600221E4B5A556CE001221C4B05
:100DF0005A5568E018F0080F0CBF02220322184B66
:100E00005A5560E056F837301B0C22F8083C002B8E
:100E100051D0002322F8063C42F8043C114B53F811
:100E200025300BBB0F4B43F8250021E0840DFF1F3D
:100E3000C02007409C470000900DFF1FB80CFF1F0B
:100E40008C0DFF1F2109000301000400210DFF1F6D
:100E5000C8004000982007400000FF1F640DFF1FDE
:100E6000CC0CFF1F100DFF1F3F4B53F8253058606F
:100E70003D4B43F825003D4B33F8151032F8082C54
:100E80000A4423F8152000F0D7F860B100F10803F8
:100E9000C8F8043018F0080F354B364A08BF13461F
:100EA00046F837300FE0002346F83730324B1A78D7
:100EB00001321A7007E018F0080F2D4B2D4A08BFB9
:100EC000134646F837300823237004E515F0010F68
:100ED00022D02A4902230B700022294B1A70294B79
:100EE00024481860284C5C6098602848D8601A61D3
:100EF0009A610D20264B1870FF232648037008388E
:100F0000037018300270244A13709F22234B1A700A
:100F100001230B70BDE8F88F15F0800F05D00D226E
:100F20001B4B1A708022403B1A7015F0020F06D03E
:100F3000184B1A78D2B21A700222083B1A7015F0B8
:100F4000100F0ED01022164B1A70BDE8F88F00203B
:100F50000146FFF7D3FBB1E628460021FFF7CEFBA1
:100F6000ACE6BDE8F88F00BFBC0CFF1F2011FF1FCF
:100F7000C8004000880040008E0DFF1F94200740ED
:100F8000200DFF1F0000FF1FD00CFF1F240DFF1FAF
:100F9000C0200740882007408C200740842007405D
:100FA0008020074008B502F0BFFD00231C491A4607
:100FB0005A50C81842600833882BF9D1194B1A6867
:100FC00042F480221A60184B1A6842F040721A608C
:100FD000134BC3F30721154A1170C3F307411432B1
:100FE00011701B0E04321370FF23343A1370083251
:100FF0001370783A137001238432137000216C321D
:1010000011707C3A13707022094B1A704FF4001261
:10101000A3F231331A601022064B1A7008BD00BFCC
:101020000000FF1F3480044000D800409C2007408F
:1010300035E400E00821074072B60D4B1A68B2FA99
:1010400082F30B2B02D962B6002070474FF00041AB
:10105000D94022EA010206490A6062B6054903EB5B
:10106000C303DB00C8180022CA504260704700BFAB
:101070006007FF1F0004FF1F08B50F4BC31A0F4A7C
:10108000A2FB03131B090B2B14D80D4A12783AB19B
:101090000C4A127812F0FF0F02D0FFF787FB08BD51
:1010A00072B6094A4FF0004121FA03F3116819435F
:1010B000116062B608BD00BF0004FF1F398EE3381F
:1010C0008E0DFF1F980DFF1F6007FF1FF8B5194B0E
:1010D0001B7813F0FF0F24D0174C0227154E206801
:1010E00020B93846FFF72EFB2060E8B14388C218CC
:1010F000157A6DB101330288934206D3FFF7BCFF26
:1011000000220D4B1A602846F8BD43802846F8BDE2
:10111000FFF7B2FF00232360337813F0FF0FDED117
:1011200005E04FF0FF30F8BD4FF0FF30F8BD4FF055
:10113000FF30F8BD980DFF1FA40DFF1F70B5134BB6
:101140001B7813F0FF0F16D0114C02260F4D2068AC
:1011500020B93046FFF7F6FA206078B1438803449F
:101160001B7A73B9FFF788FF002323602B7813F0F5
:10117000FF0FECD107E04FF0FF3070BD4FF0FF30B4
:1011800070BD184670BD4FF0FF3070BD980DFF1F49
:10119000A40DFF1F38B5194B1B6853B9184B1B78AA
:1011A00013F0FF0F24D00220FFF7CCFA134B186086
:1011B00000B3124B1868058843889D4212DDC2189F
:1011C000127A7AB103F108020244ED1A012303E016
:1011D00012F8011F013319B11C46AB42F8D100E0EF
:1011E00023464BB9FFF748FF0020044B186038BD79
:1011F000002038BD002038BD204638BDA40DFF1F9B
:10120000980DFF1F2DE9F047044601223B4B1A7051
:101210000F4600296DD0DFF8F090DFF8F0A01E46F1
:10122000DFF8DC80D9F80030A3BB9AF8003013F067
:10123000FF0F06D10022314B1A704FF0FF30BDE88E
:10124000F08743F229250120FFF79AFA052806D8EE
:1012500001233370FFF7F0FEC9F80000D0B9013D5B
:1012600002D098F800304BB10122254B1A700022B1
:10127000224B1A704FF0FF30BDE8F0870023337027
:1012800000F09EF8012333709AF8003013F0FF0F3E
:10129000D9D1CFE7002388F80030D9F800104A8868
:1012A000C2F14005AF4238BF3D4602F108030B448E
:1012B0002A444A807F1B3DB1254414F8012B03F8D2
:1012C000012BAC42F9D100E025464B883F2B03D8D7
:1012D00005220C4B1A7009E040230B800024094BB7
:1012E0001C700120FFF7A6FAC9F800400FB12C4688
:1012F00098E70020014B1870BDE8F0879A0DFF1F9A
:10130000A00DFF1FA80DFF1F9C0DFF1F980DFF1FB5
:1013100000B583B002AB03F8010D18460121FFF7B9
:1013200071FF03B05DF804FB08B50F4B1B7813F099
:10133000FF0F17D00D4B1968A1B14A8892B1002058
:101340000B4B187013463F2A04DCCA181072013385
:10135000402BFAD140230B800120FFF76BFA0022CB
:10136000024B1A6008BD00BF980DFF1F9C0DFF1FA8
:10137000A80DFF1F08B50C4B1B7813F0FF0F12D1FF
:101380000A4B19684B883F2B05DC0020CA181072E5
:101390000133402BFAD140230B800120FFF74AFA9A
:1013A0000022024B1A6008BD9A0DFF1F9C0DFF1F03
:1013B00008B5FFF757F8FFF75BF800F001F8FAE718
:1013C00008B5164B1B7843BB0122144B1A70FFF76C
:1013D000E1FE08B102F0D4FF00F0ACFB08B102F06E
:1013E00079FC00F079FF08B102F016FD01F04CFA2B
:1013F00008B102F0B3FD01F05DFD08B102F050FE4E
:1014000002F000F808B102F0EDFE02F0A3FA08B114
:1014100002F08AFF0022014B1A7008BDA90DFF1FC0
:1014200060223A4B1A70E12201331A70384B1B7854
:10143000082B10D1012203F1804303F56C331A60AD
:10144000132334490B6001F5FF2101F2FC710A609E
:10145000314A13601FE00A2B0DD139222F4B1A603D
:1014600013232C490B6001F5FF2101F2FC710A6086
:10147000294A13600FE00C2B0CBF35223D22274B6D
:101480001A60122323490B6001F5FF2101F2FC7160
:101490000A60214A1360224B1B7833B10123214A91
:1014A000136002F50022136005E000231D4A13605B
:1014B00002F5002213601C4B1B78012B06D88023F9
:1014C0001A4A136002F5002213601AE0042B06D8B2
:1014D0008423164A136002F50022136011E0082BE2
:1014E00006D88523114A136002F50022136008E034
:1014F000102B94BF862387230C4A136002F5002229
:10150000136001220A4B1A70704700BF0040074069
:101510006407FF1F0CB003400CB00B4008B0034041
:10152000AB0DFF1F20B003406507FF1F24B0034031
:10153000AA0DFF1F024B1A6801321A60704700BFE4
:10154000B40CFF1F08B50D4C236813F4802F01D095
:10155000FFF7B8F9236813F4806F01D000F074FB33
:10156000236813F4006F01D000F040FF236813F4E8
:10157000805FE9D001F0FEF9E6E700BF3480044067
:1015800008B5FFF7DFFF00BF1022014B1A8070473C
:1015900000200540704700BFEFF31383ABB9EFF3B2
:1015A0001083ABB9EFF3058323B10F2B05D9094A9B
:1015B000985C03E04FF4807000E00020EFF31183AB
:1015C0003BB1834238BF184670474FF0FF30704739
:1015D00000207047F0E300E02B4B1A6842F4806271
:1015E0001A600023294A1370294A1370294A13707C
:1015F000294A1370294A1370294B1B78152B07D0E1
:101600001B2B0AD06BB940F21332264B1A6008E04C
:1016100040F21332244B1A6003E040F21332234BA2
:101620001A60234B1B78052B08D01A2B0BD0012BEB
:101630000DD14FF451721F4B1A6008E04FF45172F4
:101640001D4B1A6003E04FF451721C4B1A60C0F33B
:1016500044321B4B1A70C0F347125A7000F01F003F
:10166000987204229A700221D9745A7588221A74C9
:101670003C22DA704022134B1A704FF00042A3F262
:101680001F331A60704700BF34800440380EFF1FBC
:10169000B10DFF1F400EFF1F390EFF1FB00DFF1FC2
:1016A000F40DFF1F40A0044018C004403C900440CB
:1016B0006607FF1F44A004401CC00440389004404B
:1016C00000A006401FE400E01B4B9B7803F0EC03F6
:1016D00000F00302134310F0040F18BF43F010038F
:1016E000154A937000F00F03042B04D1134692792E
:1016F00042F040029A71104B5A7902F0EF0210F05A
:10170000100F18BF42F010020B4B5A719B7903F077
:10171000EF0310F0200F18BF43F01003064A937137
:1017200010F4807F07D013465278D2B2197841F076
:10173000200119705A70704700A0064010B5144B74
:101740001B6813F4806F21D0124B1B7813F0FF0F2E
:1017500006D0104CFFF734FE237813F0FF0FF9D1B9
:101760004FF000420C4B1A6000230C4AD37040F239
:1017700003120B490A6004310A600A4A13700A4ACC
:1017800013700A4B1B680BB101221A7010BD00BF09
:1017900034800440B00DFF1F80E100E000A006404F
:1017A00040A00440380EFF1FB10DFF1FAC0DFF1FFE
:1017B00010B50446094A137813F0FF0FFBD12046F9
:1017C0000121FEF799FE20460021FEF771FE044B31
:1017D00053F83420034B1A6010BD00BFB00DFF1F3B
:1017E0008C4500003C0EFF1F10B40C4609B140F0C0
:1017F00080001D4B1B78984233D01C4A126812F4AB
:10180000806F2CD003F07F03052B07D01A2B09D053
:10181000012B0AD10022164B1A6006E00022154B5C
:101820001A6002E00022144B1A60002C0CBF442204
:10183000602200F07F03052B08D01A2B0BD0012B60
:101840000DD142F440720A4B1A6008E042F4407233
:10185000084B1A6003E042F44072074B1A60024BD7
:1018600018705DF8044B70476607FF1F3480044012
:1018700044A004401CC0044038900440174B1B781F
:10188000984229D0164A126812F4806F22D0152B84
:1018900006D01B2B08D053B90022124B1A6006E069
:1018A0000022114B1A6002E00022104B1A6015282A
:1018B00007D01B280AD068B940F21332094B1A60CE
:1018C00008E040F21332084B1A6003E040F2133292
:1018D000064B1A60014B1870704700BFF40DFF1FD4
:1018E0003480044040A0044018C004403C900440B0
:1018F00010B50D4B1B6813F4806F12D03F280CD825
:101900000A4C0B4B53F8303023600121FEF7F4FDF5
:10191000236800221A70012010BD0020034B1860BC
:1019200010BD002010BD00BF34800440AC0DFF1F6F
:101930008C450000114B1B6813F4806F1BD01228DC
:1019400004D140F202320E4B1A600DE0142804D18B
:1019500040F202320B4B1A6006E00B4B5A7B02F04E
:10196000FE025A7300207047074B5A7B42F0010277
:101970005A73012070470020704700BF3480044034
:101980000CA0044014C0044000A006402DE9F04122
:1019900007461F4B1B6813F4806F37D01D4B1B6825
:1019A0000BB101221A701C4B1C780134402C28BF4B
:1019B00000241A4D1A4EDFF86C8017E0FFF7ECFD9B
:1019C00040280FDC337913F0800F0FD02B780133D0
:1019D000402B28BF002318F80320D2B2F271DBB2EB
:1019E0002B7003E0FF2801DDFFF7EAFC2B78DBB268
:1019F0009C42E3D0FFB20B4B1F5501220A4B1A70D9
:101A0000E4B2054B1C70BC22054BDA70BDE8F081D6
:101A1000348004403C0EFF1F400EFF1F390EFF1F95
:101A200000A00640B40DFF1FB00DFF1F2DE9F84FB9
:101A30000746284B1B6813F4806F49D0264B1B6860
:101A40000BB101221A7007EB010B5F453DD2DFF8A5
:101A50009890224EDFF88C80DFF890A099F8004033
:101A60000134402C28BF00243578EDB2A54220D1A6
:101A7000BC2388F80330FFF78FFD402811DC98F86D
:101A8000043013F0800F10D033780133402B28BF7F
:101A900000231AF80320D2B288F80720DBB2337093
:101AA00003E0FF2801DDFFF78BFC3378DBB29D42BA
:101AB000E1D017F8013B0AF804300122084B1A70F4
:101AC000E4B289F800405F45C8D1BC22054BDA700A
:101AD000BDE8F88F348004403C0EFF1F390EFF1F15
:101AE000B00DFF1F00A00640400EFF1FB40DFF1FEA
:101AF00010B5064B1B7813F0FF0F06D0034CFFF711
:101B00005FFC237813F0FF0FF9D110BDB00DFF1F5C
:101B1000064B1B78DBB2064A1278D2B293422CBF36
:101B20003F3202F1FF32D01A704700BF400EFF1F54
:101B3000390EFF1F054B1878C0B2054B1B78DBB27E
:101B4000984238BF4030C01A704700BF380EFF1FA0
:101B5000B10DFF1F10B4184B1A78D2B2174B1B7877
:101B6000DBB29A4218D001333F2B18D81449C85C15
:101B7000C0B2DCB211490C7012490968C9B19A426D
:101B800003D300E00023D31A01E04032D31A1A2B0A
:101B90000FDC00230B700CE04FF0FF3009E0084B26
:101BA0001878C0B20021054B1970064B196800293E
:101BB000E8D15DF8044B7047380EFF1FB10DFF1FD1
:101BC000F80DFF1FAC0DFF1F094B1A78D2B2094B5D
:101BD0001B78DBB29A4207D00133402B28BF002389
:101BE000054AD05CC0B270474FF0FF30704700BF6D
:101BF000380EFF1FB10DFF1FF80DFF1F0D4B1B68A7
:101C000013F4806F14D00C4BDA7802F0CB02DA7048
:101C100040225A74DA7842F03402DA70074B1A78AC
:101C2000D2B2074B1A70074B1B680BB100221A7017
:101C3000704700BF3480044000A00640B10DFF1F74
:101C4000380EFF1FAC0DFF1F70B43D4B1B7913F016
:101C5000300F33D072B63A4B9B7D03F0FF022BB9A5
:101C6000374BDA7940225A7462B627E062B6354BB8
:101C70001978C9B2344B1C78E4B2314D334EEB794C
:101C8000D8B24B1C402B28BF0023A3421CBFF054EA
:101C90001946531E13F0FF02F1D1CAB2294B1A7034
:101CA0002B4B1B6853B1A1422EBFC4EB0101C4F101
:101CB000400409192729C4BF01221A70204BDA7881
:101CC000D2B212F0800F27D01B7913F0800F23D0EF
:101CD000204B1C78E4B2204B1B78DBB29C4210D026
:101CE00017491E4D01E0A3420BD00133402B28BF02
:101CF00000230879E85CC0B2C871087DC0B207282B
:101D0000F1D9DBB214490B700D4B1B7913F0800F26
:101D100002D07C210A4BD97012F0400F0ED0084B34
:101D20001B7913F0400F09D000220D4B1A700D4B98
:101D30001B6803B11A703C22014BDA7070BC70470B
:101D400000A00640380EFF1FB10DFF1FF80DFF1F4A
:101D5000AC0DFF1F400EFF1F390EFF1FB40DFF1FFC
:101D6000B00DFF1F3C0EFF1F2A4B1A6842F40062A1
:101D70001A600023284A1370284A1370284A1370E7
:101D8000284A1370284A1370284B1B781A2B08D046
:101D90003B2B0BD0092B0DD140F21332244B1A6090
:101DA00008E040F21332234B1A6003E040F2133292
:101DB000214B1A60214B1B781F2B08D03A2B0BD0DC
:101DC0000A2B0DD14FF451721D4B1A6008E04FF4ED
:101DD00051721C4B1A6003E04FF451721A4B1A6097
:101DE000C0F34432194B1A70C0F347125A7000F016
:101DF0001F009872042199700222DA7459758821A3
:101E000019743C21D9704021114B1970A3F21D3374
:101E10001A60704734800440B40EFF1F490EFF1F44
:101E2000BC0EFF1FB50EFF1F480EFF1F6707FF1FE9
:101E30000CB004403890044004D004406807FF1FF1
:101E400010B0044028A0044000D0044000B0064078
:101E500021E400E01B4B9B7803F0EC0300F003024D
:101E6000134310F0040F18BF43F01003154A93708A
:101E700000F00F03042B04D11346927942F0400284
:101E80009A71104B5A7902F0EF0210F0100F18BF40
:101E900042F010020B4B5A719B7903F0EF0310F0E4
:101EA000200F18BF43F01003064A937110F4807F8F
:101EB00007D013465278D2B2197841F02001197038
:101EC0005A70704700B0064010B5214B1B6813F4E0
:101ED000006F3BD01F4B1B7813F0FF0F06D01D4C3B
:101EE000FFF76EFA237813F0FF0FF9D102221A4B95
:101EF0001A600022194BDA70194B1B78092B02D09B
:101F00003B2B05D007E040F20312164B1A6002E0AB
:101F10000022154B1A60154B1B7803F07F030A2B28
:101F200002D03A2B05D007E040F20312104B1A60A2
:101F300002E000220F4B1A6000230F4A13700F4A71
:101F400013700F4B1B680BB101221A7010BD00BF3C
:101F500034800440480EFF1F84E100E000B00640DA
:101F60006707FF1F0CB0044004D004406807FF1F40
:101F700010B0044000D00440B40EFF1F490EFF1FF4
:101F8000440EFF1F10B50446094A137813F0FF0FE3
:101F9000FBD120460121FEF7AFFA20460021FEF7D3
:101FA00087FA044B53F83420034B1A6010BD00BF6E
:101FB000480EFF1F8C450000B80EFF1F10B40C46E2
:101FC00009B140F08000184B1B78984228D0174A7E
:101FD000126812F4006F21D003F07F030A2B02D0A5
:101FE0003A2B04D006E00022114B1A6002E00022D6
:101FF000104B1A60002C0CBF4422602200F07F03BB
:102000000A2B02D03A2B05D008E042F44072084B6C
:102010001A6003E042F44072064B1A60024B1870DB
:102020005DF8044B704700BF6807FF1F3480044011
:1020300010B0044000D00440124B1B78984220D0CE
:10204000114A126812F4006F19D0092B02D03B2BF1
:1020500004D006E000220D4B1A6002E000220C4B77
:102060001A60092802D03B2805D008E040F213325C
:10207000064B1A6003E040F21332054B1A60014B25
:10208000187070476707FF1F348004400CB004408D
:1020900004D0044010B50D4B1B6813F4006F12D030
:1020A0003F280CD80A4C0B4B53F8303023600121E9
:1020B000FEF722FA236800221A70012010BD0020CA
:1020C000034B186010BD002010BD00BF34800440D9
:1020D000440EFF1F8C450000114B1B6813F4006F6A
:1020E0001BD0172804D140F202320E4B1A600DE0CB
:1020F0003C2804D140F202320B4B1A6006E00B4B35
:102100005A7B02F0FE025A7300207047074B5A7B3D
:1021100042F001025A73012070470020704700BF4F
:102120003480044008B0044008D0044000B00640A9
:102130002DE9F04107461F4B1B6813F4006F37D0A1
:102140001D4B1B680BB101221A701C4B1C7801340B
:10215000282C28BF00241A4D1A4EDFF86C8017E097
:10216000FFF71AFA40280FDC337913F0800F0FD0F5
:102170002B780133282B28BF002318F80320D2B274
:10218000F271DBB22B7003E0FF2801DDFFF718F9D5
:102190002B78DBB29C42E3D0FFB20B4B1F550122E0
:1021A0000A4B1A70E4B2054B1C70BC22054BDA7066
:1021B000BDE8F08134800440B80EFF1FBC0EFF1F45
:1021C000B50EFF1F00B006404C0EFF1F480EFF1F4C
:1021D0002DE9F84F0746284B1B6813F4006F49D0D0
:1021E000264B1B680BB101221A7007EB010B5F45F0
:1021F0003DD2DFF89890224EDFF88C80DFF890A077
:1022000099F800400134282C28BF00243578EDB21D
:10221000A54220D1BC2388F80330FFF7BDF9402840
:1022200011DC98F8043013F0800F10D033780133AC
:10223000282B28BF00231AF80320D2B288F80720E1
:10224000DBB2337003E0FF2801DDFFF7B9F8337824
:10225000DBB29D42E1D017F8013B0AF804300122BD
:10226000084B1A70E4B289F800405F45C8D1BC221F
:10227000054BDA70BDE8F88F34800440B80EFF1FBC
:10228000B50EFF1F480EFF1F00B00640BC0EFF1F1B
:102290004C0EFF1F10B5064B1B7813F0FF0F06D036
:1022A000034CFFF78DF8237813F0FF0FF9D110BD21
:1022B000480EFF1F064B1B78DBB2064A1278D2B2DB
:1022C00093422CBF273202F1FF32D01A704700BF71
:1022D000BC0EFF1FB50EFF1F054B1878C0B2054B93
:1022E0001B78DBB2984238BF4030C01A704700BF3D
:1022F000B40EFF1F490EFF1F10B4184B1A78D2B24C
:10230000174B1B78DBB29A4218D001333F2B18D8F9
:102310001449C85CC0B2DCB211490C70124909689A
:10232000C9B19A4203D300E00023D31A01E040323E
:10233000D31A1A2B0FDC00230B700CE04FF0FF3088
:1023400009E0084B1878C0B20021054B1970064B04
:1023500019680029E8D15DF8044B7047B40EFF1FDF
:10236000490EFF1F740EFF1F440EFF1F094B1A7802
:10237000D2B2094B1B78DBB29A4207D00133402B13
:1023800028BF0023054AD05CC0B270474FF0FF3031
:10239000704700BFB40EFF1F490EFF1F740EFF1FD2
:1023A0000D4B1B6813F4006F14D00C4BDA7802F05D
:1023B000CB02DA7040225A74DA7842F03402DA70D2
:1023C000074B1A78D2B2074B1A70074B1B680BB138
:1023D00000221A70704700BF3480044000B00640ED
:1023E000490EFF1FB40EFF1F440EFF1F70B43D4B7C
:1023F0001B7913F0300F33D072B63A4B9B7D03F04C
:10240000FF022BB9374BDA7940225A7462B627E0C3
:1024100062B6354B1978C9B2344B1C78E4B2314DF1
:10242000334EEB79D8B24B1C402B28BF0023A3427C
:102430001CBFF0541946531E13F0FF02F1D1CAB26B
:10244000294B1A702B4B1B6853B1A1422EBFC4EB12
:102450000101C4F1400409192729C4BF01221A70DF
:10246000204BDA78D2B212F0800F27D01B7913F00C
:10247000800F23D0204B1C78E4B2204B1B78DBB2BA
:102480009C4210D017491E4D01E0A3420BD00133EE
:10249000282B28BF00230879E85CC0B2C871087DEA
:1024A000C0B20728F1D9DBB214490B700D4B1B7970
:1024B00013F0800F02D07C210A4BD97012F0400F2C
:1024C0000ED0084B1B7913F0400F09D000220D4BA2
:1024D0001A700D4B1B6803B11A703C22014BDA7065
:1024E00070BC704700B00640B40EFF1F490EFF1FBE
:1024F000740EFF1F440EFF1FBC0EFF1FB50EFF1F03
:102500004C0EFF1F480EFF1FB80EFF1F164B1A6818
:1025100042F480521A600023144A1370144A137054
:10252000144A1370144A1370144A137040F2133192
:10253000134A11604FF4517104321160C0F34431F9
:10254000104A1170C0F34711517000F01F009072D3
:10255000937013742C23D37040220B4B1A700822F3
:10256000A3F21F331A60704734800440300FFF1FFE
:10257000C50EFF1F380FFF1F310FFF1FC40EFF1FB7
:1025800008C0044000C0064023E400E01B4B9B78D9
:1025900003F0EC0300F00302134310F0040F18BF24
:1025A00043F01003154A937000F00F03042B04D17D
:1025B0001346927942F040029A71104B5A7902F018
:1025C000EF0210F0100F18BF42F010020B4B5A71BF
:1025D0009B7903F0EF0310F0200F18BF43F01003B6
:1025E000064A937110F4807F07D013465278D2B216
:1025F000197841F0200119705A70704700C00640E8
:1026000010B5134B1B6813F4805F20D0114B1B785F
:1026100013F0FF0F06D00F4CFEF7D2FE237813F015
:10262000FF0FF9D108220C4B1A6000230B4AD3701C
:1026300040F203120A490A6004310A60094A137021
:10264000094A1370094B1B680BB101221A7010BDA7
:1026500034800440C40EFF1F84E100E000C0064047
:1026600008C00440300FFF1FC50EFF1FC00EFF1F24
:1026700010B50446094A137813F0FF0FFBD120462A
:102680000121FDF739FF20460021FDF711FF044B22
:1026900053F83420034B1A6010BD00BFC40EFF1F57
:1026A0008C450000340FFF1F10B40C4609B140F0F8
:1026B0008000104B1B78984219D00F4A126812F410
:1026C000805F12D003F07F03082B02D100220B4B56
:1026D0001A60002C0CBF4422602200F07F03082BFC
:1026E00003D142F44072054B1A60024B18705DF83A
:1026F000044B70476907FF1F348004400CC004403E
:10270000704700BF10B50D4B1B6813F4805F12D0EB
:102710003F280CD80A4C0B4B53F830302360012172
:10272000FDF7EAFE236800221A70012010BD002088
:10273000034B186010BD002010BD00BF3480044062
:10274000C00EFF1F8C4500000D4B1B6813F4805F0B
:1027500013D00E280AD140F202320A4B1A600A4BFB
:102760005A7B42F001025A7301207047064B5A7B94
:1027700002F0FE025A73002070470020704700BF2D
:102780003480044004C0044000C006402DE9F041FC
:1027900007461F4B1B6813F4805F37D01D4B1B6827
:1027A0000BB101221A701C4B1C780134282C28BF55
:1027B00000241A4D1A4EDFF86C8017E0FEF7ECFE8D
:1027C00040280FDC337913F0800F0FD02B780133C2
:1027D000282B28BF002318F80320D2B2F271DBB2F5
:1027E0002B7003E0FF2801DDFEF7EAFD2B78DBB25A
:1027F0009C42E3D0FFB20B4B1F5501220A4B1A70CB
:10280000E4B2054B1C70AC22054BDA70BDE8F081D8
:1028100034800440340FFF1F380FFF1F310FFF1F9C
:1028200000C00640C80EFF1FC40EFF1F38B5054686
:102830000C4629B115F8010BFFF7A8FF013CF9D1AF
:1028400038BD00BF10B5064B1B7813F0FF0F06D044
:10285000034CFEF7B5FD237813F0FF0FF9D110BD3F
:10286000C40EFF1F064B1B78DBB2064A1278D2B2A9
:1028700093422CBF273202F1FF32D01A704700BFBB
:10288000380FFF1F310FFF1F054B1878C0B2054BE3
:102890001B78DBB2984238BF4030C01A704700BF87
:1028A000300FFF1FC50EFF1F10B4184B1A78D2B29D
:1028B000174B1B78DBB29A4218D001333F2B18D844
:1028C0001449C85CC0B2DCB211490C7012490968E5
:1028D000C9B19A4203D300E00023D31A01E0403289
:1028E000D31A1A2B0FDC00230B700CE04FF0FF30D3
:1028F00009E0084B1878C0B20021054B1970064B4F
:1029000019680029E8D15DF8044B7047300FFF1FAC
:10291000C50EFF1FF00EFF1FC00EFF1F094B1A78D8
:10292000D2B2094B1B78DBB29A4207D00133402B5D
:1029300028BF0023054AD05CC0B270474FF0FF307B
:10294000704700BF300FFF1FC50EFF1FF00EFF1FA7
:10295000054B1A78D2B2054B1A70054B1B680BB1A8
:1029600000221A70704700BFC50EFF1F300FFF1FF7
:10297000C00EFF1F2F4B1B7913F0200F23D02D4BC0
:10298000DB79D9B22C4B1B780133402B28BF0023B5
:102990002A4A1278D2B29A4204D0294AD154D9B2E2
:1029A000254A1170274A116869B1274A1278D2B2B4
:1029B00093422EBFC2EB0303C2F140029B18272BA8
:1029C000C4BF01230B701B4BDB78DBB213F0800F0D
:1029D0001CD0184A127912F0800F17D01B4A1178B8
:1029E000C9B2194A1278D2B2914203D16C21114A6C
:1029F000D1700BE00132282A28BF00221449885CDC
:102A0000C0B20C49C871D2B20F490A7013F0400F1E
:102A10000ED0084B1B7913F0400F09D000220D4B4C
:102A20001A700D4B1B6803B11A702C22014BDA701F
:102A3000704700BF00C00640300FFF1FC50EFF1FCC
:102A4000F00EFF1FC00EFF1F310FFF1F380FFF1FBB
:102A5000C80EFF1FC40EFF1F340FFF1F234B1A6841
:102A600042F400521A600023214A1370214A137065
:102A7000214A1370214A1370214A1370214B1B788D
:102A80001F2B02D03F2B05D008E040F213321E4B23
:102A90001A6003E040F213321C4B1A601C4B1B7887
:102AA000202B02D03E2B05D008E04FF45172194B79
:102AB0001A6003E04FF45172174B1A60C0F34432AE
:102AC000164B1A70C0F347125A7000F01F0098722C
:102AD00000229A701A742C22DA704022104B1A705D
:102AE0002022A3F221331A60704700BF34800440D3
:102AF000AC0FFF1F410FFF1FB40FFF1FAD0FFF1FD4
:102B0000400FFF1F6A07FF1F28A0044014D0044095
:102B10006B07FF1F2CA0044010D0044000D00640DB
:102B200025E400E01B4B9B7803F0EC0300F003026C
:102B3000134310F0040F18BF43F01003154A9370AD
:102B400000F00F03042B04D11346927942F04002A7
:102B50009A71104B5A7902F0EF0210F0100F18BF63
:102B600042F010020B4B5A719B7903F0EF0310F007
:102B7000200F18BF43F01003064A937110F4807FB2
:102B800007D013465278D2B2197841F0200119705B
:102B90005A70704700D0064010B5244B1B6813F4E0
:102BA000005F41D0224B1B7813F0FF0F06D0204C62
:102BB000FEF706FC237813F0FF0FF9D120221D4BFE
:102BC0001A6000221C4BDA7040F203131B4A136098
:102BD000043213601A4B1B781F2B02D03F2B05D0F9
:102BE00007E040F20312154B1A6002E00022154B79
:102BF0001A60154B1B7803F07F03202B02D03E2B6D
:102C000005D007E040F20312104B1A6002E00022E8
:102C10000F4B1A6000230F4A13700F4A13700F4BAB
:102C20001B680BB101221A7010BD00BF3480044034
:102C3000400FFF1F84E100E000D0064028A00440C0
:102C40006A07FF1F14D004406B07FF1F2CA004402D
:102C500010D00440AC0FFF1F410FFF1F3C0FFF1FA0
:102C600010B50446094A137813F0FF0FFBD1204634
:102C70000121FDF741FC20460021FDF719FC044B22
:102C800053F83420034B1A6010BD00BF400FFF1FE4
:102C90008C450000B00FFF1F10B40C4609B140F086
:102CA0008000184B1B78984228D0174A126812F4FB
:102CB000005F21D003F07F03202B02D03E2B04D0F5
:102CC00006E00022114B1A6002E00022104B1A604D
:102CD000002C0CBF4422602200F07F03202B02D086
:102CE0003E2B05D008E042F44072084B1A6003E026
:102CF00042F44072064B1A60024B18705DF8044BA8
:102D0000704700BF6B07FF1F348004402CA00440B5
:102D100010D00440124B1B78984220D0114A126800
:102D200012F4005F19D01F2B02D03F2B04D006E015
:102D300000220D4B1A6002E000220C4B1A601F2883
:102D400002D03F2805D008E040F21332064B1A604B
:102D500003E040F21332054B1A60014B18707047C4
:102D60006A07FF1F3480044028A0044014D00440A8
:102D700010B50D4B1B6813F4005F12D03F280CD820
:102D80000A4C0B4B53F8303023600121FDF7B4FBA4
:102D9000236800221A70012010BD0020034B186028
:102DA00010BD002010BD00BF348004403C0FFF1F49
:102DB0008C450000002070472DE9F04107461F4B6D
:102DC0001B6813F4005F37D01D4B1B680BB1012249
:102DD0001A701C4B1C780134282C28BF00241A4D73
:102DE0001A4EDFF86C8017E0FEF7D6FB40280FDCA8
:102DF000337913F0800F0FD02B780133282B28BFA5
:102E0000002318F80320D2B2F271DBB22B7003E07A
:102E1000FF2801DDFEF7D4FA2B78DBB29C42E3D029
:102E2000FFB20B4B1F5501220A4B1A70E4B2054B3F
:102E30001C70AC22054BDA70BDE8F0813480044090
:102E4000B00FFF1FB40FFF1FAD0FFF1F00D00640D4
:102E5000440FFF1F400FFF1F38B505460C4629B130
:102E600015F8010BFFF7A8FF013CF9D138BD00BFF1
:102E700010B5064B1B7813F0FF0F06D0034CFEF77E
:102E80009FFA237813F0FF0FF9D110BD400FFF1FF9
:102E9000064B1B78DBB2064A1278D2B293422CBFA3
:102EA000273202F1FF32D01A704700BFB40FFF1F64
:102EB000AD0FFF1F054B1878C0B2054B1B78DBB276
:102EC000984238BF4030C01A704700BFAC0FFF1F98
:102ED000410FFF1F10B4184B1A78D2B2174B1B7852
:102EE000DBB29A4218D001333F2B18D81449C85C82
:102EF000C0B2DCB211490C7012490968C9B19A42DA
:102F000003D300E00023D31A01E04032D31A1A2B76
:102F10000FDC00230B700CE04FF0FF3009E0084B92
:102F20001878C0B20021054B1970064B19680029AA
:102F3000E8D15DF8044B7047AC0FFF1F410FFF1F36
:102F40006C0FFF1F3C0FFF1F094B1A78D2B2094BC1
:102F50001B78DBB29A4207D00133402B28BF0023F5
:102F6000054AD05CC0B270474FF0FF30704700BFD9
:102F7000AC0FFF1F410FFF1F6C0FFF1F054B1A788F
:102F8000D2B2054B1A70054B1B680BB100221A70A8
:102F9000704700BF410FFF1FAC0FFF1F3C0FFF1F0B
:102FA0002F4B1B7913F0200F23D02D4BDB79D9B297
:102FB0002C4B1B780133402B28BF00232A4A127860
:102FC000D2B29A4204D0294AD154D9B2254A1170BA
:102FD000274A116869B1274A1278D2B293422EBFAC
:102FE000C2EB0303C2F140029B18272BC4BF01238D
:102FF0000B701B4BDB78DBB213F0800F1CD0184A30
:10300000127912F0800F17D01B4A1178C9B2194AF1
:103010001278D2B2914203D16C21114AD1700BE0E7
:103020000132282A28BF00221449885CC0B20C490A
:10303000C871D2B20F490A7013F0400F0ED0084B7E
:103040001B7913F0400F09D000220D4B1A700D4B65
:103050001B6803B11A702C22014BDA70704700BF55
:1030600000D00640AC0FFF1F410FFF1F6C0FFF1F6A
:103070003C0FFF1FAD0FFF1FB40FFF1F440FFF1FBB
:10308000400FFF1FB00FFF1F164B1A6842F48062FB
:103090001A600023144A1370144A1370144A1370F0
:1030A000144A1370144A137040F21331134A11601A
:1030B0004FF45171043A1160C0F34431104A117059
:1030C000C0F34711517000F01F0090729370137499
:1030D0002C23D37040220B4B1A700422A3F23A33F4
:1030E0001A607047288004402810FF1FBD0FFF1F83
:1030F0003010FF1F2910FF1FBC0FFF1F64D00440BA
:1031000000A00E4042E400E01B4B9B7803F0EC0370
:1031100000F00302134310F0040F18BF43F0100334
:10312000154A937000F00F03042B04D113469279D3
:1031300042F040029A71104B5A7902F0EF0210F0FF
:10314000100F18BF42F010020B4B5A719B7903F01D
:10315000EF0310F0200F18BF43F01003064A9371DD
:1031600010F4807F07D013465278D2B2197841F01C
:10317000200119705A70704700A00E4010B5134B13
:103180001B6813F4806F20D0114B1B7813F0FF0FD6
:1031900006D00F4CFEF714F9237813F0FF0FF9D186
:1031A00004220C4B1A6000230B4AD37040F2031226
:1031B0000A490A6004390A60094A1370094A1370FF
:1031C000094B1B680BB101221A7010BD2880044006
:1031D000BC0FFF1F88E100E000A00E4064D0044057
:1031E0002810FF1FBD0FFF1FB80FFF1F10B50446AB
:1031F000094A137813F0FF0FFBD120460121FDF798
:103200007BF920460021FDF753F9044B53F8342095
:10321000034B1A6010BD00BFBC0FFF1F8C450000A0
:103220002C10FF1F10B40C4609B140F08000104B69
:103230001B78984219D00F4A126812F4805F12D09E
:1032400003F07F03212B02D100220B4B1A60002CCC
:103250000CBF4422602200F07F03212B03D142F4F3
:103260004072054B1A60024B18705DF8044B7047B2
:103270006C07FF1F3480044060D00440704700BFDB
:1032800010B50D4B1B6813F4806F12D03F280CD87B
:103290000A4C0B4B53F8303023600121FDF72CF919
:1032A000236800221A70012010BD0020034B186013
:1032B00010BD002010BD00BF28800440B80FFF1FC4
:1032C0008C4500000D4B1B6813F4806F13D0182839
:1032D0000AD140F202320A4B1A600A4B5A7B42F082
:1032E00001025A7301207047064B5A7B02F0FE021E
:1032F0005A73002070470020704700BF28800440A8
:1033000068D0044000A00E402DE9F04107461F4B55
:103310001B6813F4806F37D01D4B1B680BB1012263
:103320001A701C4B1C780134282C28BF00241A4D1D
:103330001A4EDFF86C8017E0FEF72EF940280FDCFC
:10334000337913F0800F0FD02B780133282B28BF4F
:10335000002318F80320D2B2F271DBB22B7003E025
:10336000FF2801DDFEF72CF82B78DBB29C42E3D07E
:10337000FFB20B4B1F5501220A4B1A70E4B2054BEA
:103380001C70AC22054BDA70BDE8F0812880044047
:103390002C10FF1F3010FF1F2910FF1F00A00E4030
:1033A000C00FFF1FBC0FFF1F38B505460C4629B1E3
:1033B00015F8010BFFF7A8FF013CF9D138BD00BF9C
:1033C00010B5064B1B7813F0FF0F06D0034CFDF72A
:1033D000F7FF237813F0FF0FF9D110BDBC0FFF1FCB
:1033E000064B1B78DBB2064A1278D2B293422CBF4E
:1033F000273202F1FF32D01A704700BF3010FF1F92
:103400002910FF1F054B1878C0B2054B1B78DBB2A3
:10341000984238BF4030C01A704700BF2810FF1FC5
:10342000BD0FFF1F10B4184B1A78D2B2174B1B7880
:10343000DBB29A4218D001333F2B18D81449C85C2C
:10344000C0B2DCB211490C7012490968C9B19A4284
:1034500003D300E00023D31A01E04032D31A1A2B21
:103460000FDC00230B700CE04FF0FF3009E0084B3D
:103470001878C0B20021054B1970064B1968002955
:10348000E8D15DF8044B70472810FF1FBD0FFF1FE8
:10349000E80FFF1FB80FFF1F094B1A78D2B2094B74
:1034A0001B78DBB29A4207D00133402B28BF0023A0
:1034B000054AD05CC0B270474FF0FF30704700BF84
:1034C0002810FF1FBD0FFF1FE80FFF1F054B1A78C5
:1034D000D2B2054B1A70054B1B680BB100221A7053
:1034E000704700BFBD0FFF1F2810FF1FB80FFF1F41
:1034F0002F4B1B7913F0200F23D02D4BDB79D9B242
:103500002C4B1B780133402B28BF00232A4A12780A
:10351000D2B29A4204D0294AD154D9B2254A117064
:10352000274A116869B1274A1278D2B293422EBF56
:10353000C2EB0303C2F140029B18272BC4BF012337
:103540000B701B4BDB78DBB213F0800F1CD0184ADA
:10355000127912F0800F17D01B4A1178C9B2194A9C
:103560001278D2B2914203D16C21114AD1700BE092
:103570000132282A28BF00221449885CC0B20C49B5
:10358000C871D2B20F490A7013F0400F0ED0084B29
:103590001B7913F0400F09D000220D4B1A700D4B10
:1035A0001B6803B11A702C22014BDA70704700BF00
:1035B00000A00E402810FF1FBD0FFF1FE80FFF1FC8
:1035C000B80FFF1F2910FF1F3010FF1FC00FFF1F74
:1035D000BC0FFF1F2C10FF1F164B1A6842F400622D
:1035E0001A600023144A1370144A1370144A13709B
:1035F000144A1370144A137040F21331134A1160C5
:103600004FF4517104321160C0F34431104A11700B
:10361000C0F34711517000F01F0090729370137443
:103620002C23D37040220B4B1A701022A3F54F733A
:103630001A60704728800440A410FF1F3910FF1F34
:10364000AC10FF1FA510FF1F3810FF1F20C0044043
:1036500000B00E4044E400E01B4B9B7803F0EC0309
:1036600000F00302134310F0040F18BF43F01003DF
:10367000154A937000F00F03042B04D1134692797E
:1036800042F040029A71104B5A7902F0EF0210F0AA
:10369000100F18BF42F010020B4B5A719B7903F0C8
:1036A000EF0310F0200F18BF43F01003064A937188
:1036B00010F4807F07D013465278D2B2197841F0C7
:1036C000200119705A70704700B00E4010B5134BAE
:1036D0001B6813F4006F20D0114B1B7813F0FF0F01
:1036E00006D00F4CFDF76CFE237813F0FF0FF9D1D5
:1036F00010220C4B1A6000230B4AD37040F20312C5
:103700000A490A6004310A60094A1370094A1370B1
:10371000094B1B680BB101221A7010BD28800440B0
:103720003810FF1F88E100E000B00E4020C00440C8
:10373000A410FF1F3910FF1F3410FF1F10B50446DF
:10374000094A137813F0FF0FFBD120460121FCF743
:10375000D3FE20460021FCF7ABFE044B53F8342087
:10376000034B1A6010BD00BF3810FF1F8C450000CE
:10377000A810FF1F10B40C4609B140F08000104B98
:103780001B78984219D00F4A126812F4805F12D049
:1037900003F07F03302B02D100220B4B1A60002C68
:1037A0000CBF4422602200F07F03302B03D142F48F
:1037B0004072054B1A60024B18705DF8044B70475D
:1037C0006D07FF1F3480044024C00440704700BFD1
:1037D00010B50D4B1B6813F4006F12D03F280CD8A6
:1037E0000A4C0B4B53F8303023600121FCF784FE68
:1037F000236800221A70012010BD0020034B1860BE
:1038000010BD002010BD00BF288004403410FF1FF1
:103810008C4500000D4B1B6813F4006F13D0382843
:103820000AD140F202320A4B1A600A4B5A7B42F02C
:1038300001025A7301207047064B5A7B02F0FE02C8
:103840005A73002070470020704700BF2880044052
:1038500028D0044000B00E402DE9F04107461F4B30
:103860001B6813F4006F37D01D4B1B680BB101228E
:103870001A701C4B1C780134282C28BF00241A4DC8
:103880001A4EDFF86C8017E0FDF786FE40280FDC4B
:10389000337913F0800F0FD02B780133282B28BFFA
:1038A000002318F80320D2B2F271DBB22B7003E0D0
:1038B000FF2801DDFDF784FD2B78DBB29C42E3D0CD
:1038C000FFB20B4B1F5501220A4B1A70E4B2054B95
:1038D0001C70AC22054BDA70BDE8F08128800440F2
:1038E000A810FF1FAC10FF1FA510FF1F00B00E4057
:1038F0003C10FF1F3810FF1F38B505460C4629B194
:1039000015F8010BFFF7A8FF013CF9D138BD00BF46
:1039100010B5064B1B7813F0FF0F06D0034CFDF7D4
:103920004FFD237813F0FF0FF9D110BD3810FF1FA2
:10393000064B1B78DBB2064A1278D2B293422CBFF8
:10394000273202F1FF32D01A704700BFAC10FF1FC0
:10395000A510FF1F054B1878C0B2054B1B78DBB2D2
:10396000984238BF4030C01A704700BFA410FF1FF4
:103970003910FF1F10B4184B1A78D2B2174B1B78AE
:10398000DBB29A4218D001333F2B18D81449C85CD7
:10399000C0B2DCB211490C7012490968C9B19A422F
:1039A00003D300E00023D31A01E04032D31A1A2BCC
:1039B0000FDC00230B700CE04FF0FF3009E0084BE8
:1039C0001878C0B20021054B1970064B1968002900
:1039D000E8D15DF8044B7047A410FF1F3910FF1F9A
:1039E0006410FF1F3410FF1F094B1A78D2B2094B25
:1039F0001B78DBB29A4207D00133402B28BF00234B
:103A0000054AD05CC0B270474FF0FF30704700BF2E
:103A1000A410FF1F3910FF1F6410FF1F054B1A78F9
:103A2000D2B2054B1A70054B1B680BB100221A70FD
:103A3000704700BF3910FF1FA410FF1F3410FF1F75
:103A40002F4B1B7913F0200F23D02D4BDB79D9B2EC
:103A50002C4B1B780133402B28BF00232A4A1278B5
:103A6000D2B29A4204D0294AD154D9B2254A11700F
:103A7000274A116869B1274A1278D2B293422EBF01
:103A8000C2EB0303C2F140029B18272BC4BF0123E2
:103A90000B701B4BDB78DBB213F0800F1CD0184A85
:103AA000127912F0800F17D01B4A1178C9B2194A47
:103AB0001278D2B2914203D16C21114AD1700BE03D
:103AC0000132282A28BF00221449885CC0B20C4960
:103AD000C871D2B20F490A7013F0400F0ED0084BD4
:103AE0001B7913F0400F09D000220D4B1A700D4BBB
:103AF0001B6803B11A702C22014BDA70704700BFAB
:103B000000B00E40A410FF1F3910FF1F6410FF1FEC
:103B10003410FF1FA510FF1FAC10FF1F3C10FF1F2C
:103B20003810FF1FA810FF1F00B585B072B61A4BE2
:103B300070221A7019491A4A116080221A701A46A6
:103B4000137813F0800FFBD0164B186862B6164B33
:103B500098429CBF00EB8000400001A90A2200F0BF
:103B60001FFC9DF804307BB908E001A9595C31B114
:103B70009180023201330A2BF7D100E00023013398
:103B80005B000A4A137003E0084A53800123ECE704
:103B900005B05DF804FB00BF0000024000000741D3
:103BA000040002400C0002407F9698005408FF1F5A
:103BB00008B503681B68C9B2984708BD08B5036813
:103BC0001B68C9B2984708BD08B503681B68C9B22D
:103BD000984708BD08B503681B68C9B2984708BD77
:103BE00008B54B0803F1B76000F55840B0FBF1F0A1
:103BF000FDF7F2FC08BD00BF10B514464B0803F1F9
:103C0000B76000F55840B0FBF1F0FDF7E5FC204649
:103C1000FDF75AFD10BD00BF08B5FDF78FFD08BDCB
:103C200008B50846FDF7C4FD08BD00BF08B5084645
:103C3000FDF724FE08BD00BF08B508461146FDF794
:103C4000D3FD08BD08B50846FDF752FE003018BF89
:103C5000012008BD08B50846FDF76CFE003018BF0E
:103C6000012008BD08B5FDF765FF08BD08B5FDF7E3
:103C7000ABFF08BD08B5FDF76DFF08BD08B5FDF742
:103C800037FF08BD08B5FDF7B9FF08BD08B5FDF75A
:103C90003FFF08BD08B50846FDF778FE012008BDC6
:103CA00008B50846FDF772FE012008BD10B51446A0
:103CB00008461146FDF7BAFE204610BD38B50D4640
:103CC000084600F0B7FB044628462146FDF7AEFE45
:103CD000204638BD704700BF044B00221A714FF4D4
:103CE0007A7199601A73024A1A607047B010FF1F08
:103CF0002048000008B503681B68C9B2984708BD92
:103D000008B503681B68C9B2984708BD08B50368C1
:103D10001B68C9B2984708BD08B503681B68C9B2DB
:103D2000984708BD08B54B0803F1B76000F5584047
:103D3000B0FBF1F0FEF718F808BD00BF10B514464F
:103D40004B0803F1B76000F55840B0FBF1F0FEF707
:103D50000BF82046FEF77EF810BD00BF08B5FEF751
:103D6000B3F808BD08B50846FEF70CF908BD00BF5A
:103D700008B50846FEF760F908BD00BF08B508465B
:103D80001146FEF71BF908BD08B50846FEF782F993
:103D9000003018BF012008BD08B50846FEF79CF9A1
:103DA000003018BF012008BD08B5FEF795FA08BD20
:103DB00008B5FEF7DBFA08BD08B5FEF79DFA08BDA9
:103DC00008B5FEF767FA08BD08B5FEF7E9FA08BDC1
:103DD00008B5FEF76FFA08BD08B50846FEF7A8F962
:103DE000012008BD08B50846FEF7A2F9012008BD6C
:103DF00010B5144608461146FEF7EAF9204610BDF4
:103E000038B50D46084600F015FB04462846214605
:103E1000FEF7DEF9204638BD704700BF044B002294
:103E20001A714FF47A7199601A73024A1A607047D6
:103E3000C010FF1F8048000008B503681B68C9B2A6
:103E4000984708BD08B503681B68C9B2984708BD04
:103E500008B503681B68C9B2984708BD08B5036870
:103E60001B68C9B2984708BD08B54B0803F1B76095
:103E700000F55840B0FBF1F0FEF748FB08BD00BF6D
:103E800010B514464B0803F1B76000F55840B0FB7D
:103E9000F1F0FEF73BFB2046FEF778FB10BD00BFBC
:103EA00008B5FEF7ADFB08BD08B50846FEF7E0FB18
:103EB00008BD00BF08B50846FEF722FC08BD00BFDC
:103EC00008B508461146FEF7EFFB08BD08B50846E1
:103ED000FEF718FC003018BF012008BD08B50846E1
:103EE000FEF732FC003018BF012008BD08B5FEF710
:103EF000CBFC08BD08B5FEF711FD08BD08B5FEF7FF
:103F0000D3FC08BD08B5FEF79DFC08BD08B5FEF75B
:103F10001FFD08BD08B5FEF7A5FC08BD08B508469D
:103F2000FEF734FC012008BD08B50846FEF72EFC5C
:103F3000012008BD10B5144608461146FEF776FC70
:103F4000204610BD38B50D46084600F073FA044609
:103F500028462146FEF76AFC204638BD704700BF60
:103F6000044B00221A714FF47A7199601A73024A55
:103F70001A607047D010FF1FE048000008B50368C2
:103F80001B68C9B2984708BD08B503681B68C9B269
:103F9000984708BD08B503681B68C9B2984708BDB3
:103FA00008B503681B68C9B2984708BD08B54B0837
:103FB00003F1B76000F55840B0FBF1F0FEF74EFD9D
:103FC00008BD00BF10B514464B0803F1B76000F5FB
:103FD0005840B0FBF1F0FEF741FD2046FEF7A2FD90
:103FE00010BD00BF08B5FEF7D7FD08BD08B50846EF
:103FF000FEF736FE08BD00BF08B50846FEF78AFE8C
:1040000008BD00BF08B508461146FEF745FE08BDCD
:1040100008B50846FEF7ACFE003018BF012008BD09
:1040200008B50846FEF7C6FE003018BF012008BDDF
:1040300008B5FEF73FFF08BD08B5FEF785FF08BDD0
:1040400008B5FEF747FF08BD08B5FEF711FF08BD2C
:1040500008B5FEF793FF08BD08B5FEF719FF08BDC8
:1040600008B50846FEF7A8FE012008BD08B50846B9
:10407000FEF7A2FE012008BD10B514460846114601
:10408000FEF7EAFE204610BD38B50D46084600F0A2
:10409000D1F9044628462146FEF7DEFE204638BD0B
:1040A000704700BF044B00221A714FF47A71996077
:1040B0001A73024A1A607047E010FF1F404900005F
:1040C00008B503681B68C9B2984708BD08B50368FE
:1040D0001B68C9B2984708BD08B503681B68C9B218
:1040E000984708BD08B503681B68C9B2984708BD62
:1040F00008B54B0803F1B76000F55840B0FBF1F08C
:10410000FEF7C2FF08BD00BF10B514464B0803F10F
:10411000B76000F55840B0FBF1F0FEF7B5FF204660
:10412000FEF7F2FF10BD00BF08B5FFF727F808BD86
:1041300008B50846FFF75AF808BD00BF08B508469D
:10414000FFF79CF808BD00BF08B508461146FFF709
:1041500069F808BD08B50846FFF792F8003018BFA7
:10416000012008BD08B50846FFF7ACF8003018BFBD
:10417000012008BD08B5FFF745F908BD08B5FFF7F0
:104180008BF908BD08B5FFF74DF908BD08B5FFF775
:1041900017F908BD08B5FFF799F908BD08B5FFF78D
:1041A0001FF908BD08B50846FFF7AEF8012008BDA5
:1041B00008B50846FFF7A8F8012008BD10B5144659
:1041C00008461146FFF7F0F8204610BD38B50D46F9
:1041D000084600F02FF9044628462146FFF7E4F888
:1041E000204638BD704700BF044B00221A714FF4BF
:1041F0007A7199601A73024A1A607047F010FF1FB3
:10420000A049000008B503681B68C9B2984708BDFB
:1042100008B503681B68C9B2984708BD08B50368AC
:104220001B68C9B2984708BD08B503681B68C9B2C6
:10423000984708BD08B54B0803F1B76000F5584032
:10424000B0FBF1F0FFF7C8F908BD00BF10B5144688
:104250004B0803F1B76000F55840B0FBF1F0FFF7F1
:10426000BBF92046FFF7F8F910BD00BF08B5FFF70E
:104270002DFA08BD08B50846FFF760FA08BD00BF73
:1042800008B50846FFF7A2FA08BD00BF08B5084602
:104290001146FFF76FFA08BD08B50846FFF798FA10
:1042A000003018BF012008BD08B50846FFF7B2FA74
:1042B000003018BF012008BD08B5FFF74BFB08BD53
:1042C00008B5FFF791FB08BD08B5FFF753FB08BD24
:1042D00008B5FFF71DFB08BD08B5FFF79FFB08BD3C
:1042E00008B5FFF725FB08BD08B50846FFF7B4FA87
:1042F000012008BD08B50846FFF7AEFA012008BD49
:1043000010B5144608461146FFF7F6FA204610BDD0
:1043100038B50D46084600F08DF80446284621467B
:10432000FFF7EAFA204638BD704700BF044B002271
:104330001A714FF47A7199601A73024A1A607047C1
:104340000011FF1F004A000008B5FCF723FF08BD5D
:1043500008B5FCF7BBFE08BD08B5FCF7EFFE08BDCD
:1043600008B5FCF7E1FF08BD08B50846FCF7D0FF2B
:1043700008BD00BF08B508461146FCF743FF08BD5D
:10438000704700BF044B00221A714FF47A71996094
:104390001A73024A1A6070471011FF1F604A00002A
:1043A00030B40023B0FBF2F402FB14041D46092CC8
:1043B00094BF30343734E4B2CC54B0FBF2F008B1DF
:1043C0000133EFE70D4400226A70934207DD885CF9
:1043D000CC5C8C54C8540132013B9A42F7DB08464E
:1043E00030BC704770B50F4E0F4D761BB61007D01E
:1043F000043D0024013455F8043F9847A642F9D102
:104400000A4E0B4D761B00F03BFBB61008D0043D66
:104410000024013455F8043F9847A642F9D170BDF5
:1044200070BD00BF8C4A00008C4A0000B04A0000FA
:104430008C4A000020F0030110F00300C0F10000DE
:1044400051F8043B00F1040C4FEACC0C6FF0000271
:104450001CBF22FA0CF213434FF0010C4CEA0C2C57
:104460004CEA0C4CA3EB0C0222EA030212EACC1237
:1044700004BF51F8043B0430F4D013F0FF0F1FBF0A
:10448000013013F47F4F013013F47F0F18BF013058
:10449000704700BF024B13B1024800F005B87047E7
:1044A00000000000B544000001460020024603461B
:1044B00000F018B838B5094D094C641BA41018BF9A
:1044C00005EB840505D0013C55F8043D9847002CC8
:1044D000F9D1BDE8384000F0EBBA00BF00000000A1
:1044E00000000000F0B5274C2668D6F8484185B09A
:1044F0000746002C41D065681F2D1EDD224818B9E3
:104500004FF0FF3005B0F0BD4FF4C8700391029238
:104510000193AFF300800399029A019B044600289F
:10452000EED0D6F848512560002060600546C6F8F8
:104530004841C4F88801C4F88C013FB9AB1C002085
:104540000135656044F8231005B0F0BD04EB85002B
:104550004FF0010CC0F88820D4F888610CFA05F2FD
:104560001643022FC4F88861C0F80831E6D1D4F8A8
:104570008C311A43C4F88C21E0E706F5A674C6F81E
:104580004841B8E77C4A0000000000004008FE43B4
:1045900040A004404408FE4344A004400018FE43E9
:1045A00000C004403000FE43309004403400FE431D
:1045B000349004401C18FE431CC004401018FE43F5
:1045C00010C004400818FE4308C004400C18FE4305
:1045D0000CC004400C10FE430CB004401010FE430D
:1045E00010B004401810FE4318B004401C10FE43E5
:1045F0001CB004401410FE4314B004400418FE43E1
:1046000004C004400010FE4300B004400008FE4314
:1046100000A004400408FE4304A004400C08FE432C
:104620000CA004400808FE4308A004401418FE43F0
:1046300014C004401818FE4318C004400410FE4380
:1046400004B004400810FE4308B004406820FE4354
:1046500068D004401400FE43149004403800FE4328
:10466000389004403C00FE433C9004404000FE4330
:10467000409004404808FE4348A004404C08FE43D4
:104680004CA004402808FE4328A004402C08FE4308
:104690002CA004406020FE4360D004406420FE4310
:1046A00064D004402010FE4320B004402410FE4398
:1046B00024B004402810FE4328B004402C10FE43D0
:1046C0002CB004404400FE43449004407000FE437C
:1046D000709004407400FE43749004406800FE43F0
:1046E000689004405008FE4350A004405808FE4320
:1046F00058A004405C08FE435CA004405408FE43FC
:1047000054A004402018FE4320C004402418FE4357
:1047100024C004401008FE4310A004401408FE43C7
:1047200014A004403818FE4338C004403418FE4337
:1047300034C004403018FE4330C004403C18FE43EF
:104740003CC004402C18FE432CC004402820FE43EB
:1047500028D004402C20FE432CD004400020FE43EF
:1047600000D004400420FE4304D004400820FE434F
:1047700008D004400C20FE430CD004401020FE431F
:1047800010D004401420FE4314D00440151915190C
:10479000000100007007FF1F12000000000200006F
:1047A0009C07FF1F4900000000220100E807FF1FCF
:1047B0002100000000210100CE07FF1F09000000BA
:1047C000002200000C08FF1F1C0000000021000058
:1047D000AE07FF1F09000000000300005008FF1F84
:1047E00000000000010309048407FF1F000000000F
:1047F000020309042808FF1F000000000303090446
:104800005408FF1F0000000000000000000000002E
:1048100000000000FFFFFFFF00000000000000009C
:10482000953C0000AD3C0000653C0000753C00007C
:104830006D3C00007D3C0000E13B0000F93B0000C6
:10484000193C0000213C00002D3C0000393C0000D8
:10485000453C0000553C0000853C00008D3C0000BC
:10486000B13B0000BD3B0000C93B0000D53B000050
:10487000BD3C0000A13C0000000000000000000062
:10488000D93D0000F13D0000A93D0000B93D000008
:10489000B13D0000C13D0000253D00003D3D000050
:1048A0005D3D0000653D0000713D00007D3D000064
:1048B000893D0000993D0000C93D0000D13D000048
:1048C000F53C0000013D00000D3D0000193D0000D9
:1048D000013E0000E53D0000000000000000000077
:1048E0001D3F0000353F0000ED3E0000FD3E000092
:1048F000F53E0000053F0000693E0000813E0000DB
:10490000A13E0000A93E0000B53E0000C13E0000EF
:10491000CD3E0000DD3E00000D3F0000153F0000D1
:10492000393E0000453E0000513E00005D3E000063
:10493000453F0000293F000000000000000000008B
:10494000614000007940000031400000414000001B
:104950003940000049400000AD3F0000C53F000065
:10496000E53F0000ED3F0000F93F0000054000007A
:10497000114000002140000051400000594000005B
:104980007D3F0000893F0000953F0000A13F0000EF
:10499000894000006D4000000000000000000000A1
:1049A000A5410000BD4100007541000085410000A7
:1049B0007D4100008D410000F140000009410000F0
:1049C00029410000314100003D4100004941000003
:1049D0005541000065410000954100009D410000E7
:1049E000C1400000CD400000D9400000E54000007B
:1049F000CD410000B14100000000000000000000B7
:104A0000E942000001430000B9420000C942000031
:104A1000C1420000D1420000354200004D4200007A
:104A20006D42000075420000814200008D4200008E
:104A300099420000A9420000D9420000E142000072
:104A400005420000114200001D4200002942000002
:104A500011430000F54200000000000000000000CB
:104A600069430000754300004943000051430000C2
:104A70005943000061430000430000007008FF1F1D
:104A8000F8B500BFF8BC08BC9E46704795440000CE
:104A900035040000D93C00001D3E0000613F0000CD
:104AA000A5400000E94100002D43000085430000BF
:044AB000F8B500BF96
:104AB400FFFFFFFF0A0401090A081F202222000049
:104AC4001201010100000040C01686040002010228
:104AD4000301000018035400650065006E007300B4
:104AE40079006400750069006E006F0009024900D6
:104AF400020100C032090400000203000000092181
:104B040011010001221C0007058303400001070571
:104B1400040340000109040100020300000009210C
:104B2400110100012221000705810340000107054E
:104B3400020320000200000006C9FF0904A15C75FD
:104B440008150026FF009540097581029520097615
:104B5400910295040976B102C000000006ABFF0A79
:104B64000002A1017508150026FF00954009018186
:104B740002954009029102C02603540065006500B5
:104B84006E00730079006400750069006E006F00A8
:104B940020005200610077004800490044000000F2
:104BA400040309040C0300000000000000000000DE
:104BB40000000000000000000000000000000000F1
:104BC400000000005C0BFF1FC40BFF1F2C0CFF1F19
:104BD40000000000000000000000000000000000D1
:104BE40000000000000000000000000000000000C1
:104BF40000000000784A00000000000000000000EF
:104C040000000000000000000000000000000000A0
:104C14000000000000000000000000000000000090
:104C24000000000000000000000000000000000080
:104C34000000000000000000000000000000000070
:104C44000000000000000000000000000000000060
:104C54000000000000000000000000000000000050
:104C6400000000000000000001000000000000003F
:104C74000E33CDAB34126DE6ECDE05000B00000004
:104C84000000000000000000000000000000000020
:104C94000000000000000000000000000000000010
:104CA4000000000000000000000000000000000000
:104CB40000000000000000000000000000000000F0
:00000001FF
